:0C02F700010B00010C00010900010A00CD
:0D02CE00EFD3940040077E6EDEFE1F80F32C
:0102DB002200
:1002AB00E4FFC2B7C2B0D2B0C2B030B1FDD2B7AF6B
:0302BB0080C2B747
:0102BE00221D
:03000600EF2DFFDC
:0100090022D4
:04012D00AB07AA066C
:100131007C007D641200A28F0E7C007D0AAF03AEAD
:10014100021200A27C007D0A1200A28D0FAE02AF46
:10015100037C007D0A1200A28D10AD0E7F021201F8
:10016100FDAD0F7F031201FDAD107F041201FDAD46
:060171000D7F010201FDFB
:1001FD00C291E4FEC292EF339290EF25E0FFD292CE
:10020D000EBE08F0E4FEC292ED339290ED25E0FDB6
:08021D00D2920EBE08F0D2914E
:0102250022B6
:10017700309708209605E4F50D800E3096082097F5
:1001870005750D018003750D09E50D14601324F83D
:10019700601C2409701CE508C39F5012D2B5C2B673
:1001A70022E508C39F5005C2B5D2B6228000C2B56A
:0301B700C2B622AB
:1001BA00E509C394F5400CE50994FC5006D294D2A3
:1001CA0093801DE509C394FC400FD2947F0A120262
:1001DA00CEC294C293050A8007E4F50AC294D29368
:1001EA00E50AD39464400BE4F509D2B5D2B6C296B7
:0301FA00C2972287
:0F02BF00D2AFD2A8D288D2AAD28AD2BAD2B822CB
:0E02DC00758901758CFF758AFCD2A9D28C221F
:10024E007D017F0C1201FDE4FD7F0F1201FD7DFF8C
:10025E007F091201FD7D037F0B1201FD7D047F0AD4
:03026E000201FD8D
:100226001202BF1202DC12024E1202ABEFC313F52A
:100236000BAD0CFF1200068F091201771201BAAF3F
:08024600097E0012012D80E188
:0300030002029066
:10029000C0E0C0D0E50D6409600CE50C6480600628
:0B02A0007408250CF50CD0D0D0E03223
:030013000202EAFC
:0D02EA00C0E0E50C6004150C150CD0E032EE
:03000B000202717D
:10027100C0E0C0D0C28C758CFF758AFB0508E5080B
:0F028100C394FE4003750800D28CD0D0D0E03279
:03000000020016E5
:0C001600787FE4F6D8FD75811002005DD3
:1000A200C2D5EC30E709B2D5E4C39DFDE49CFCEE79
:1000B20030E715B2D5E4C39FFFE49EFE1200D8C319
:1000C200E49DFDE49CFC80031200D830D507C3E414
:0600D2009FFFE49EFE22E8
:10002200020226E493A3F8E493A34003F68001F2CC
:1000320008DFF48029E493A3F85407240CC8C333DF
:10004200C4540F4420C8834004F456800146F6DFAE
:10005200E4800B01020408102040809002F7E47E45
:10006200019360BCA3FF543F30E509541FFEE493A3
:10007200A360010ECF54C025E060A840B8E493A36A
:10008200FAE493A3F8E493A3C8C582C8CAC583CA95
:10009200F0A3C8C582C8CAC583CADFE9DEE780BE4D
:0103030000F9
:1000D800BC000BBE0029EF8DF084FFADF022E4CC0C
:1000E800F875F008EF2FFFEE33FEEC33FCEE9DECD5
:1000F800984005FCEE9DFE0FD5F0E9E4CEFD22ED1B
:10010800F8F5F0EE8420D21CFEADF075F008EF2F64
:10011800FFED33FD4007985006D5F0F222C398FD55
:050128000FD5F0EA22F2
:00000001FF
